:10000000A0110020612900000B690000B529000043
:10001000B5290000B5290000B52900000000000046
:10002000000000000000000000000000B5260000F5
:10003000B5290000000000005D26000043680000B4
:100040002129000021290000212900002129000088
:100050002129000021290000212900002129000078
:100060002129000021290000212900002129000068
:100070002129000021290000212900002129000058
:100080002129000021290000212900002129000048
:100090002129000021290000212900002129000038
:1000A0002129000021290000212900002129000028
:1000B0002129000021290000212900002129000018
:1000C0002129000021290000212900002129000008
:0C00D00021290000212900002129000046
:1000DC0053B94AB9002908BF00281CBF4FF0FF31A3
:1000EC004FF0FF3000F06CB9ADF1080C6DE904CEA7
:1000FC0000F006F8DDF804E0DDE9022304B07047F7
:10010C002DE9F047089E0D4604468E46002B40F024
:10011C0082808A42174646D9B2FA82F24AB1C2F1BB
:10012C00200105FA02F320FA01F1974041EA030E8F
:10013C0094404FEA1748230CBEFBF8FCB9B208FBFD
:10014C001CEE43EA0E430CFB01F098420AD9FB1853
:10015C000CF1FF3580F01681984240F21381ACF11E
:10016C00020C3B441B1AA4B2B3FBF8F008FB10338F
:10017C0044EA034400FB01F1A14209D93C1900F106
:10018C00FF3380F00181A14240F2FE8002383C44F2
:10019C00641A40EA0C4000211EB1D4400023C6E989
:1001AC000043BDE8F08702B9FFDEB2FA82F2002A02
:1001BC004FD1CB1B4FEA174E1FFA87F80121B3FB27
:1001CC00FEFC250C0EFB1C3345EA034508FB0CF327
:1001DC00AB4207D97D190CF1FF3002D2AB4200F2D1
:1001EC00E7808446ED1AA3B2B5FBFEF00EFB10556A
:1001FC0043EA054408FB00F8A04507D93C1900F177
:10020C00FF3302D2A04500F2D7801846A4EB0804B5
:10021C0040EA0C40C0E78B4208D9002E00F0AF80BA
:10022C000021C6E900050846BDE8F087B3FA83F162
:10023C0000294BD1AB4202D3824200F2B780841A20
:10024C0065EB030301209E46002EAAD0C6E9004EA2
:10025C00A7E7C2F1200C01FA02F3974020FA0CF048
:10026C004FEA174E21FA0CFC1843BCFBFEF1050CAF
:10027C000EFB11CC1FFA87F845EA0C4501FB08F37D
:10028C00AB4204FA02F409D97D1901F1FF3C80F06C
:10029C008B80AB4240F2888002393D44EB1A85B228
:1002AC00B3FBFEF00EFB103345EA034500FB08F3ED
:1002BC00AB4207D97D1900F1FF3C71D2AB426FD92B
:1002CC0002383D44EB1A40EA014178E7C1F1200CB9
:1002DC008B4022FA0CF71F4320FA0CF405FA01F3B9
:1002EC004FEA174E25FA0CF51C43230CB5FBFEF90F
:1002FC001FFA87F80EFB195543EA054509FB08FA66
:10030C00AA4502FA01F200FA01F308D97D1909F1A4
:10031C00FF3047D2AA4545D9A9F102093D44A5EBC6
:10032C000A05A4B2B5FBFEF00EFB105544EA0544D9
:10033C0000FB08F8A04507D93C1900F1FF352DD278
:10034C00A0452BD902383C4440EA0940A4EB0804F0
:10035C00A0FB02894C45C6464D4619D316D05EB15A
:10036C00B3EB0E0264EB050404FA0CFCCA404CEA35
:10037C000202CC40C6E900240021BDE8F0873146DA
:10038C0030460EE7AC46EDE6184601E74345E6D2AB
:10039C00B8EB020E69EB07050138E0E72846D3E716
:1003AC0060468FE78146BAE7614677E708464BE738
:1003BC00ACF1020C3D4415E702383C4426E700BF83
:1003CC00704700BF08B5044B186883685B694FF42D
:1003DC000031984708BD00BFB003002008B5044B9E
:1003EC00186883685B694FF48021984708BD00BF8B
:1003FC00B003002008B5064805F0DCFB054804F006
:10040C00F7FC00B108BD044805F0D4FBFAE700BFC7
:10041C00A87A000084030020C47A000008B50648BE
:10042C0005F0C8FB054804F0E3FC00B108BD044826
:10043C0005F0C0FBFAE700BFE87A0000A00300203B
:10044C00047B000010B5404803F082FF3F4C206055
:10045C0081680269136823F4005313600B684FF42E
:10046C0088720D219847206881680269136823F40B
:10047C00804313600B684FF488720E2198472068F4
:10048C0081680269136823F4003313600B684FF41E
:10049C00206211219847206881680269136823F44F
:1004AC00802313600B684FF4206212219847284B6D
:1004BC00284A5A604FF400529A6020688368DB69BE
:1004CC0013B1012222499847234B244A5A604FF416
:1004DC0080429A601D4B18688368DB6913B1012256
:1004EC001D499847194B186883680269126812F401
:1004FC00005F22D14FF470329C6902F4C02302F4E5
:10050C00A0320D21A047114B18688368026912684C
:10051C0012F4804F14D14FF470329C6902F4C02352
:10052C0002F4A0320E21A0470D490E4806F007FF39
:10053C000D490E4806F003FF10BD4FF4B822DBE75F
:10054C004FF4B822E9E700BF287B0000B00300207D
:10055C00780300200104000094030020290400000B
:10056C00D103000084030020E9030000A003002055
:10057C0008B50349034805F01DFBFFF763FF08BDF1
:10058C00307B0000447B0000014B1860704700BFBB
:10059C000000002010B584B00446019002910021A7
:1005AC00039101A9054800F0B7F8039B029A934206
:1005BC0001DA0022E254039804B010BD915B0000F4
:1005CC002DE9F04383B0044608461546238B13F0FF
:1005DC00080F05D103F0070600230093019369E08F
:1005EC00012909D043F02003238385F31188BFF33D
:1005FC006F8F03B0BDE8F08343F010032383F4E75F
:10060C00204605F01AFB57E0D4F814904A46694688
:10061C00204605F02BFB00275AE023691F680621B2
:10062C00204605F0E3FA4FF0000951E023695F68BA
:10063C000421204605F0DAFA4FF0000948E023695E
:10064C009F680521204605F0D1FA4FF000093FE0E4
:10065C00002246E0002244E043F00803238385F3A4
:10066C001188BFF36F8F002944D1009B2BB14B46EF
:10067C0042466946204605F06FFB17B125492046D6
:10068C00B8474FF02003EFF3118583F31188BFF3C4
:10069C006F8F238B23F008032383238B13F0100F0E
:1006AC002ED023F0100323830120268B06F007069F
:1006BC0000289AD00228A3D0002896D00128A3D0D5
:1006CC000328AAD00428B1D00528B8D00027B946F1
:1006DC00238B03F00708B045BAD0A268002AB9D022
:1006EC0001221146002AB7D1009A002AB4D1002F5A
:1006FC00B2D1D2E74A464146204605F07FFAB4E72C
:10070C0013F0200F04D023F0200323830220CCE726
:10071C000020CAE7935D00002DE9F04F93B0064628
:10072C000D469246039300249AF80000002800F02E
:10073C00D684252808D00AF1010A2946B04700289A
:10074C00C0F2CE840134EFE70023069307930B939A
:10075C00089309930A930AF101089AF80130252BA2
:10076C0001D001272CE00AF102088DF82330A8E112
:10077C009DF8203043F004038DF82030FFB108F1D0
:10078C0001081CE09DF8203043F008038DF8203060
:10079C00F4E79DF8203043F010038DF82030EDE79E
:1007AC009DF8203043F020038DF82030E6E79DF8CB
:1007BC00203043F040038DF82030DFE700274FB3A3
:1007CC0098F80030203B102BF8D801A252F823F0F7
:1007DC009F070000C9070000C9070000AD07000013
:1007EC00C9070000C9070000C9070000C9070000BD
:1007FC00C9070000C9070000C907000091070000E5
:10080C00C90700007D070000C9070000C9070000E8
:10081C00BB0700009DF8203003F04403442B6DD03F
:10082C00CDF814809DF8203043F080038DF82030F3
:10083C0098F800302A2B68D005A805F034FB059BEE
:10084C00984512D09DF8203043F080038DF820306D
:10085C000990C3F34003002860DB002213439DF88A
:10086C00202063F341028DF82020059B05931B7813
:10087C002E2B14BF002301239DF8212063F341028A
:10088C008DF82120002B4BD0059B5A1C05925B78D0
:10089C002A2B48D005A805F006FB0A909DF82030BD
:1008AC00C3F34003002847DB002213439DF82020AC
:1008BC0063F341028DF82020DDF8148098F80030A5
:1008CC004C3B2E2B00F2DC80DFE803F0CADADADADC
:1008DC00DADADADADADADADADADADADADADADADA6C
:1008EC00DADADADADADADADA38DA6ADA51DADADAF7
:1008FC00DADADADAC0DADADADADAB6009DF82030E7
:10090C006FF386138DF820308AE79DF8213043F081
:10091C0001038DF8213043460133A7E701229DE7FF
:10092C00DDF81480CAE79DF8213043F004038DF8FC
:10093C00213002F10108C1E70122B6E708F10102FA
:10094C0098F80130682B08D09DF82130022161F312
:10095C00C6038DF8213090462BE09DF82130012202
:10096C0062F3C6038DF8213008F1020821E008F18A
:10097C00010298F801306C2B08D09DF8213003212E
:10098C0061F3C6038DF82130904612E09DF82130BA
:10099C00042262F3C6038DF8213008F1020808E046
:1009AC009DF82130052262F3C6038DF8213008F141
:1009BC00010818F8013B8DF82330A3F14102372AC6
:1009CC0000F25081DFE812F026014E014E014E017B
:1009DC002601260126014E014E014E014E014E010B
:1009EC004E014E014E014E014E014E014E014E0183
:1009FC004E014E014E0113014E014E014E014E01AE
:100A0C004E014E014E014E0126014E0113016300B1
:100A1C002601260126014E0163004E014E014E01B6
:100A2C004E012F0113013F014E014E013F014E01BA
:100A3C0013014E014E0113019DF82130062262F381
:100A4C00C6038DF8213008F10108B2E79DF821307A
:100A5C00072262F3C6038DF8213008F10108A8E7DC
:100A6C009DF82130082262F3C6038DF8213008F17D
:100A7C0001089DF8203043F002038DF8203098E7F0
:100A8C009DF821306FF3C6038DF8213091E79DF866
:100A9C002220012161F302028DF822209DF82120F1
:100AAC0002F07802402A00F0AA80632B00F0AE809E
:100ABC009DF82030C3F34002174367F341038DF8D0
:100ACC0020309DF8213013F0010F00F0DA80039BE9
:100ADC001A1D03921F68002FC0F2CB809DF82130A5
:100AEC0013F0040F00F0DF80039B1A1D0392D3F860
:100AFC0000B0BBF1000FC0F2CD80002309930A9324
:100B0C009DF8223003F007039DF82110C1F3C301B7
:100B1C00012B00F0D180022B00F01681042B00F089
:100B2C006781032B00F07E819DF8209019F0030360
:100B3C00029340F07D819DF82330253B532B00F22E
:100B4C003382DFE813F081013102310231023102CC
:100B5C0031023102310231023102310231023102F1
:100B6C0031023102310231023102310231023102E1
:100B7C0031023102310231023102310231023102D1
:100B8C0031023102310231023102310231023102C1
:100B9C0031023102310231023102310231023102B1
:100BAC00310231023102310231023102C70131020C
:100BBC003102310231023102310231023102310291
:100BCC003102A101AB013102310231023102AB0120
:100BDC0031023102310231020802C701EA0131024D
:100BEC0031028F013102C70131023102C7019DF878
:100BFC002220022161F302028DF822204EE79DF89B
:100C0C00201041F001018DF820104EE7171E18BF7F
:100C1C0001274DE79DF82230042262F302038DF880
:100C2C002230012744E79DF82230032262F30203AD
:100C3C008DF822309DF8213003F07803402B7FF49F
:100C4C0037AF012734E79DF82230032262F3020309
:100C5C008DF822309DF8213013F0780F3FF428AF37
:100C6C00012725E79DF8203043F001038DF8203053
:100C7C001EE79DF8203043F004038DF820307F42AE
:100C8C002CE79DF92030002B02DB4FF0FF3725E7D6
:100C9C00099F23E79DF821306FF341038DF8213034
:100CAC004FF0FF3B29E713F0020F02D0DDF828B01C
:100CBC0023E74FF0FF3B20E7CB1E042B04D8DFE8E3
:100CCC0003F00B1D29353500039B1A1D03921A687E
:100CDC00D317CDE9062306E0039B1A1D03921A686D
:100CEC00D317CDE90623012928D002297FF41CAFA4
:100CFC00BDF91820D317CDE9062315E7039B07335D
:100D0C0023F0070303F108020392D3E90023CDE992
:100D1C000623E8E7039B073323F0070303F10802DC
:100D2C000392D3E90023CDE90623DCE7039B1A1DCC
:100D3C0003921A68D317CDE90623D4E79DF818302F
:100D4C00069300230793EFE6CB1E042B04D8DFE8B1
:100D5C0003F00B1F35414100039B1A1D03921B68C6
:100D6C000693002307931EE09DF82330632B07D0D6
:100D7C00039B1A1D03921B6806930023079312E032
:100D8C00039B1A1D03921B680693002307930AE02A
:100D9C00039B073323F0070303F108020392D3E903
:100DAC000023CDE9062301291CD002297FF4BCAE17
:100DBC00BDF81830069300230793B5E6039B073361
:100DCC0023F0070303F108020392D3E90023CDE9D2
:100DDC000623E8E7039B1A1D03921B680693002366
:100DEC000793E0E79DF818300693002307939BE6E2
:100DFC0008290BD0039B073323F0070303F10802E8
:100E0C000392D3E90023CDE906238DE6039B073338
:100E1C0023F0070303F108020392D3E90023CDE981
:100E2C00062381E6039B1A1D03921B6806937BE63F
:100E3C00434652462946304605F0B2F80028C0F227
:100E4C004F810444C2466FE429462520B047002850
:100E5C00C0F246810134DDF808900DF1460B4FF0DD
:100E6C00000AA7E0DDF818A0BBF1000F08DB59461B
:100E7C00504605F0D4FD0AEB000BDDF8089099E024
:100E8C00504605F0C4FDF6E7069B8DF83030DDF8D2
:100E9C0008900DF1310B0DF1300A8BE019F0080FB1
:100EAC0005D119F0100904D04FF0200901E04FF0E2
:100EBC002B09DDE90623002A73F1000102DBCDE9E1
:100ECC00062309E0524263EB4303CDE906234FF0BE
:100EDC002D0901E0DDF808900DF1460300930CABF1
:100EEC0008AADDE9060104F0F1FF8246BBF1000F10
:100EFC00C0F290800DF14603A3EB0A039DF820206D
:100F0C006FF386128DF820209B4540F28680ABEB68
:100F1C00030309930DF1460B4CE0069830B9DDF84C
:100F2C000890DFF8C4B1ABF1050A43E00DF14603BC
:100F3C0000930CAB08AA002104F0C8FF82469DF870
:100F4C00223043F010038DF8223078238DF82330B3
:100F5C00DDF80890CAE7069A9DF82130C3F3C30365
:100F6C00072B06D8DFE803F0040C0E1012171C1E1A
:100F7C001460DDF808900DF1460B4FF0000A19E0F3
:100F8C001470F6E71480F4E71460F2E72046E117DA
:100F9C00C2E90001EDE72046E117C2E90001E8E7EC
:100FAC001460E6E71460E4E7DDF808900DF1460BF9
:100FBC004FF0000ABAF1000F00F08E80ABEB0A0282
:100FCC00B9F1000F00D001329DF8221011F0100F72
:100FDC0026D00232099B134411F0400F01D00A9A1B
:100FEC001344002F32DDFF1A9DF8203013F0040F4C
:100FFC002CD113F0400F18D0B9F1000F18D029469E
:10100C004846B04700286BDB0134DDF808903023EC
:10101C0002930FE00DF1460BCCE70DF1460BC9E73F
:10102C0011F0080FD6D00132D4E72023029301E04F
:10103C00302302933B465F1E002B07DD29460298A6
:10104C00B04700284CDB01343B46F4E7B9F1000F04
:10105C0005D029464846B047002841DB01349DF8AD
:10106C002230C3F30012C3F3C003134305D0294647
:10107C003020B047002833DB01349DF8223013F0C8
:10108C00100F06D029469DF82300B047002827DB17
:10109C000134099B03F1FF39002B07DD2946302071
:1010AC00B04700281CDB01344B46F3E75B46524645
:1010BC002946304604F074FF002811DB0444002F4D
:1010CC0007DD29462020B047002809DB0134013F09
:1010DC00F5E7C246FFF728BBC246FFF725BB204603
:1010EC0013B0BDE8F08F00BF5D7B0000054B98424C
:1010FC0004D3054B984203D300207047002070475F
:10110C0001207047DC770000FC83000008B5064B1B
:10111C00186018B1054B1B68092B00DC08BD04488E
:10112C0003F0F8FCFAE700BFE4030020B40300204E
:10113C004400002008B5024803F0ECFC08BD00BFD9
:10114C004400002008B5034804F053FF003818BFD2
:10115C00012008BDC003002030B589B000220F4922
:10116C000F4806F007FB0F4D00220023CDE90623A4
:10117C00002404940E2303930294019400940A4BCC
:10118C004FF440720949284606F08FF80849284662
:10119C0003F00EFB204609B030BD00BF411100002A
:1011AC00580000209000002085180000800A0020C4
:1011BC00607B000008B50B4B00221A700A4B0B4ADF
:1011CC001A604FF4004000F0B5FD00F099FB0848A0
:1011DC0004F001FF042328220649074806F002F810
:1011EC0008BD00BF710A0020040000201760000039
:1011FC00C0030020601F0020C803002010B54FF072
:10120C002003EFF3118483F31188BFF36F8F04482D
:10121C0004F0F1FE84F31188BFF36F8F10BD00BF93
:10122C00C0030020064BBFF35B8F53E8002F013245
:10123C0043E800210029F8D1BFF35B8F704700BF52
:10124C00B8030020064B00200246BFF35B8F53E827
:10125C00000F43E800210029F9D1BFF35B8F7047E1
:10126C00B803002038B5FFF7EDFF0546002400E079
:10127C0001340B4B0B4A9B1AB4EB231F0FDA0948B2
:10128C0000EB041043685B79002BF1D02301054A75
:10129C00D3581B69002BEBD029469847E8E738BD9B
:1012AC00247A0000047A0000034B18680028D4BF8D
:1012BC0000200120704700BFB8030020054B064AF0
:1012CC009B1AB1EBD30F02D252F8310070470020B9
:1012DC00704700BF047A0000C479000008B50B4BBE
:1012EC00C31A1B11013342681371436819604368B8
:1012FC0001225A71064B1B781BB1054B01221A7047
:10130C0008BD044803F006FCF7E700BF047A0000B0
:10131C00700A002044000020184BBFF35B8F53E889
:10132C00002F511C43E800100028F8D1BFF35B8F4D
:10133C001ABB70B5002409E0114B03EB06135B6874
:10134C00042219682846FFF7C9FF01340D4B0C4ADB
:10135C009B1AB4EB231F0FDA2646094D05EB041537
:10136C002B7B002BF1D02301054AD3589B69002B12
:10137C00E2D028469847DFE770BD7047BC030020D9
:10138C00047A0000247A000010B582B00446FFF7FE
:10139C00ADFE10BB0022002301A9114803F0B2F9E5
:1013AC0008B1104C19E0019B0122BFF35B8F53E88D
:1013BC00001F43E800200028F9D1BFF35B8F1F22E8
:1013CC0021460198043005F008FB019C7E2384F82B
:1013DC002330002384F824300434204602B010BD9E
:1013EC00C8030020687B000038B1074A904206D33E
:1013FC00A032904205D30020704700207047002097
:10140C0070470120704700BF601F0020037A13F063
:10141C00010F00D070472DE9F04383B0064604F06D
:10142C00AEFE0746304604F095FE0146384604F001
:10143C00F0FD054604E0012303FA04F425EA040553
:10144C006DB3B5FA85F4C4F11F042146304604F09F
:10145C0084FE8146FFF74AFE0028ECD14846FFF790
:10146C00C3FF0028E7D10F4B9945E4D07189C1F334
:10147C008911FFF723FF02460B4B0C495B1ADB0863
:10148C00012161F302086FF3C50863F38F18ADF8FF
:10149C0000803B462146064800F0B2F8CBE703B08B
:1014AC00BDE8F083687B0000D4790000C4790000AB
:1014BC00847B0000F8B5064619BB144B1B780BB1A6
:1014CC00002403E0FFF7A2FFFAE70134104B114AA6
:1014DC009B1AB4EB231F14DA0E4D05EB04156B6845
:1014EC005B79002BF1D03146284604F08CFD0028A6
:1014FC00EBD02701074BDB595B68314628469847F0
:10150C00E3E7304604F03DFEF8BD00BF710A002051
:10151C00247A0000047A000010B50446104B1B78A6
:10152C0003B9C8B1FFF76AFE024678B10D4BBFF3A1
:10153C005B8F53E8001F013943E800100028F8D1F5
:10154C00BFF35B8F21461046FFF7B4FF14B9FFF7CA
:10155C00ABFE10B9FFF7F6FD10BDFFF783FEF9E700
:10156C00700A0020B403002010B582B01F4BBFF3EB
:10157C005B8F53E8002F013243E800210029F8D19A
:10158C00BFF35B8F1A4B1B7863B91A4B1B681BB1EB
:10159C00164A1268012A15D0144A12680A2A1CD05D
:1015AC0002B010BD4FF02003EFF3118483F31188C8
:1015BC00BFF36F8F0020FFF7AFFF84F31188BFF3E9
:1015CC006F8FEDE700220023CDE900234FF400429A
:1015DC000023094804F018FAE2E7002BE0D0064893
:1015EC0006F0D4F8054803F095FAD9E7B4030020C7
:1015FC00710A0020E4030020580000204400002061
:10160C002DE9F04180460F4616461D4600F09CF928
:10161C00044640B101234360002202814FF00003D5
:10162C0062F3000303724CB1C4F81080637A032296
:10163C0062F3071363726761A661E561C4B1BDF81B
:10164C00183063810B4B1B689847E0604FF0200308
:10165C00EFF3118583F31188BFF36F8F2146064892
:10166C0004F0BDFC85F31188BFF36F8FFFF77CFF8F
:10167C00BDE8F08104000020C0030020F8B5064648
:10168C000D46174600F060F9044640B10123436053
:10169C00002101814FF0000361F30003037234B1A8
:1016AC002661637A012262F3071363726561B4B138
:1016BC0067810B4B1B689847E0604FF02003EFF3FA
:1016CC00118583F31188BFF36F8F2146054804F011
:1016DC0086FC85F31188BFF36F8FFFF745FFF8BDCC
:1016EC0004000020C00300202DE9F04107460E46FF
:1016FC001546984600F028F9044640B10123436092
:10170C00002202814FF0000362F3000303723CB12C
:10171C002761637A022262F3071363726661A56123
:10172C00BCB1A4F80A800C4B1B689847E0604FF0E2
:10173C002003EFF3118583F31188BFF36F8F2146DC
:10174C00064804F04CFC85F31188BFF36F8FFFF74C
:10175C000BFFBDE8F08100BF04000020C003002097
:10176C0070B505460E4600F0EFF8044640B1012373
:10177C004360002202814FF0000362F30003037206
:10178C0004B12561B4B166810B4B1B689847E060CE
:10179C004FF02003EFF3118583F31188BFF36F8FA4
:1017AC002146064804F01BFC85F31188BFF36F8FAC
:1017BC00FFF7DAFE70BD00BF04000020C00300205C
:1017CC0030B5A3B002460B460025812101A8FEF7D7
:1017DC00E1FE0246812828BF812201A9284604F097
:1017EC00E3FCB8B1044645810B4B1B689847E0609D
:1017FC004FF02003EFF3118583F31188BFF36F8F44
:10180C002146064804F0EBFB85F31188BFF36F8F7C
:10181C00FFF7AAFE23B030BD04000020C003002057
:10182C00124B1B7803B1704710B5FFF775FD002400
:10183C0000E001340E4B0F4A9B1AB4EB231F0CDA59
:10184C000C4800EB041043685B79002BF1D02301AA
:10185C00084AD3585B699847EBE70020FFF75CFE1A
:10186C000028FAD1014B01221A7010BD710A002018
:10187C00247A0000047A000008B5FFF74DFD03F050
:10188C00BBFEFFF743FC06E04FF0FF324FF0FF3397
:10189C00044803F063F90020FFF73EFE0028FAD15C
:1018AC00F2E700BF4400002000B583B0043801907B
:1018BC00BFF35B8F50E8003F5A1E40E8002100291F
:1018CC00F8D1BFF35B8F012B02D003B05DF804FBA2
:1018DC0001A9024805F094FCF7E700BFC8030020FB
:1018EC0010B582B00190019B33B11C6801A903486B
:1018FC0005F086FC0194F6E702B010BDE803002069
:10190C0008B520231A460249024805F06BFC08BDB5
:10191C0000200020E803002010B582B000230193C2
:10192C000120FFF7F9FD0446FFF77CFC00220023A1
:10193C0001A9044802F0E6FE08B1002CF0D1019890
:10194C0002B010BDE803002000B583B00023019362
:10195C0004F080FB50B10022002301A9074802F0DB
:10196C00D1FE30B9019803B05DF804FB00220023CE
:10197C00F3E7FFF7D1FF0190F4E700BFE803002085
:10198C00F0B583B00190044604F0E4FB237A13F025
:10199C00010F01D1064650BB019B1A7A12F0020FBF
:1019AC0028D101A9154805F02BFC03B0F0BD019816
:1019BC0004F0E5FB314604F02CFB074688B9EBE755
:1019CC002846FFF771FF0134B442E5D22146019855
:1019DC0004F0C3FB0546FFF707FD0028F3D0002FEA
:1019EC00E5D027FA04F313F0010FECD0E8E7002759
:1019FC003C46E9E75869FFF773FFD2E7E80300209C
:101A0C000EB400B582B0014603AB53F8042B01931E
:101A1C000348FEF781FE02B05DF804EB03B070479B
:101A2C00DD650000F0B585B011F0440F05D01A4B00
:101A3C001C6834B9002005B0F0BD1849FFF7E0FF71
:101A4C00F9E7174B1968B2FBF1F1B1FBF4F5154A44
:101A5C00A2FB0532D20A4FF4616606FB1256124BFA
:101A6C00A3FB06735B0904FB15114FF47A7505FB98
:101A7C0001F1B1FBF4F707FB141105FB01F1B1FB0C
:101A8C00F4F402940197C3EB0311A6EB81010091CE
:101A9C000649FFF7B5FFCEE704040020C87B000021
:101AAC0008040020C5B3A29189888888D47B0000E3
:101ABC0061B108B52AB1064A52F8232012B9054A79
:101ACC0000E0044A0449FFF79BFF08BD704700BFC4
:101ADC00507C0000F07B0000F87B000011F0100F30
:101AEC000BD108B511F0200F03D00449FFF788FF84
:101AFC0008BD0349FFF784FFFAE77047E47A00005A
:101B0C00FC7B00002DE9F04105460F461646984631
:101B1C000699FFF7E3FF0024444505DA23492846DC
:101B2C00FFF76EFF0134F7E7002409E01F49284650
:101B3C00FFF766FF0BE01E492846FFF761FF0134F3
:101B4C000F2C0CDC002C02DD14F0070FEED0B4428D
:101B5C00F1D23A5D17492846FFF752FFEFE71649D5
:101B6C002846FFF74DFF002409E010492846FFF7EF
:101B7C0047FF0BE011492846FFF742FF01340F2CB9
:101B8C0012DC002C02DD14F0070FEED0B44206D2AA
:101B9C003A5DA2F120035E2BECD92E22EAE7034931
:101BAC002846FFF72DFFE9E7BDE8F081247C000013
:101BBC00087C0000007C00000C7C0000107C000005
:101BCC002DE9F041804616461D46BDF9187059B9ED
:101BDC000024002F1CDB86B10123079A934013F0DD
:101BEC00100F18D10D4E09E00D4B079A53F8222017
:101BFC000C49FFF705FF0446EBE7084E394628462B
:101C0C00FFF75CFB024631464046FFF7F9FE044401
:101C1C002046BDE8F081044EF0E700BF147C0000C4
:101C2C008C7C0000207C00001C7C00002DE9F04323
:101C3C0089B007460E469146984604F0A0FA024633
:101C4C000E493046FFF7DCFE002410250395234691
:101C5C0003AA0DEB0501384604F0FEFA039A52B1C3
:101C6C00CDF800804B460DEB05013046FFF74AFFDF
:101C7C00039D2C44E9E709B0BDE8F083F87B000034
:101C8C00F0B583B006460C4600273D460DE0A26831
:101C9C00134413F8017C0A2F14BF00270127204698
:101CAC0004F089FC019B1D4473B1E36801932B463E
:101CBC0001AAA168304604F0CFFA6368019A1A6051
:101CCC00019B002BEBD0E2E70FB903B0F0BD02494A
:101CDC002046FFF795FEF8E7287C000070B582B02F
:101CEC000446056842F20F738B4228BF0B460E4A1E
:101CFC000521684603F06CFF064663685B680B229F
:101D0C000A49284604F0B0FA63685B6832466946B3
:101D1C00284604F0A9FA63685B681B22044928462C
:101D2C0004F0A2FA02B070BD2C7C0000807C000094
:101D3C00647C0000074B01221A60074B984205D9BE
:101D4C004008044A13685B001360F6E7034B186005
:101D5C00704700BF0804002040420F00040400201C
:101D6C0070B506460D460024AC4207D2044B1868E9
:101D7C00315D83685B6898470134F5E7284670BD90
:101D8C002004002008B5034802F0E2FA024B186068
:101D9C0008BD00BFA07C00002004002008B502484C
:101DAC0004F009FC08BD00BFD87C000008B502484F
:101DBC00FFF794FF08BD00BFD87C000010B50C469F
:101DCC00084604F0BAF90F222146034804F01CFC23
:101DDC00204604F0D6F910BDD87C0000014B01223E
:101DEC001A707047730A002008B518B9084B002206
:101DFC001A7008BD074B1B7823B141F2883005F0EF
:101E0C00B3FCF6E7A420002103F0CAFBF1E700BF06
:101E1C00730A0020740A002038B504460A4B0122CC
:101E2C001A700A4B1B7803B938BD002002F04CFA2B
:101E3C000028F9D0044B1B78002BF5D0651E2046EA
:101E4C00FFF7D2FF2C46F0E7730A0020740A00203B
:101E5C002DE9F04106460D4604270DE02A46314691
:101E6C00002002F0CDF904461CE03846FFF7D4FF01
:101E7C001CBB164B1B7803B3154B1B78002BEDD1F9
:101E8C00DFF850804FF0FF324FF0FF33404602F046
:101E9C0073FD2A463146002002F0B2F90446404652
:101EAC0002F0F4FD002CE0D1084B1B78002BDFD0A6
:101EBC00013F3846FFF798FFDAE714B9034B1B785C
:101ECC0003B92C462046BDE8F08100BF730A002000
:101EDC00740A00203000002008B5034B01221A7050
:101EEC00024804F068FB08BD740A0020147D000051
:101EFC0008B50248FFF7F2FE08BD00BF147D0000D4
:101F0C0010B50C46084604F018F90F222146034878
:101F1C0004F07AFB204604F034F910BD147D000067
:101F2C001B4B1B68002B32D130B585B0184B0122EE
:101F3C001A60184B93E8070004AB03E90700164B33
:101F4C0063B104F0D7FD4FF02003EFF3118583F359
:101F5C001188BFF36F8F114B1C680AE0002383F3C9
:101F6C001188BFF36F8FEEE723460CB1236843B1A2
:101F7C001C4634B1A368002BF6D0064A107898475B
:101F8C00F2E785F31188BFF36F8F05B030BD704752
:101F9C000800002050040020016B000048040020C1
:101FAC0070B588B006462A4C6D460146284604F0AA
:101FBC006AFB95E8070084E807002078002845D0E4
:101FCC00244B00221A60B6F1FF3F0CD102F0D4FF73
:101FDC004FF02003EFF3118583F31188BFF36F8F5C
:101FEC001D4B1C6816E0A368590CD8031B4C1C4AEB
:101FFC00002300194FF0000444EB0101FEF768F8D0
:10200C000121301A05F081FBE0E723460CB123686F
:10201C0043B11C4634B16368002BF6D00C4A1078DF
:10202C009847F2E785F31188BFF36F8F084B93E85D
:10203C00070008AB03E907000A4B0BB104F047FD9E
:10204C00FFF76EFF03F048F8014B187808B070BD2D
:10205C005004002008000020480400203F420F00DC
:10206C0040420F00DB6A000010B504460A2807D076
:10207C00074B1868E1B283685B689847204610BD2F
:10208C00034B186883685B680D219847F0E700BF25
:10209C005C04002010B5044C204601F073F9204676
:1020AC00FEF772FA10BD00BF7520000008B5044899
:1020BC0002F04EF9034B1860FFF7ECFF002008BD4F
:1020CC00A07C00005C04002000487047B404002091
:1020DC00034BC01A8010034B03FB00F0704700BF8A
:1020EC0074040020B76DDBB638B505460C46FFF717
:1020FC00EFFF01464022034804F043FB014628460B
:10210C00A04738BD2C78000030B583B005460C468E
:10211C00FFF7DEFF0146402300932346054A06489D
:10212C0004F049FB011E01DB03B030BD2846A0477B
:10213C00FAE700BF0B6800002C78000008B510B15E
:10214C0001280DD008BD0021084804F0A1FA8368CD
:10215C0013F0070FF6D10021044804F000FBF1E75F
:10216C000121024804F0FBFAECE700BF2C780000D8
:10217C0010B54FF02003EFF3118483F31188BFF3F4
:10218C006F8F134A136843F00203136013F0010FAF
:10219C0008D1002384F31188BFF36F8F9BB904F02F
:1021AC0036FB10BD4FF08043D3F80C24D3F80C341D
:1021BC0012F0010F01D10023ECE7FFF785FF04F0CB
:1021CC00BBFA0123E6E70021024804F0C8FAE8E76D
:1021DC00C40400202C78000008B50A4BBFF35B8FB9
:1021EC0053E8002F22F0020143E800100028F7D139
:1021FC00BFF35B8F12F0010F00D008BD04F00CFB95
:10220C00FBE700BFC404002000B585B0CDF800D0BA
:10221C00CDF804D000230293012303936B46074AA5
:10222C0004F0E5FA002805DB4FF4804200236846F1
:10223C0002F094FC05B05DF804FB00BF39680000A7
:10224C0008B5074B1B781BB1002001F0DFFD08BD62
:10225C004FF4A57005F088FA014B01221A70F3E7D0
:10226C00750A002070B5064600220121104600F0C8
:10227C0049FA002000F028FA114801F0B3FD114B87
:10228C0098421AD104F070FF002403E00123AB60E4
:10229C001C44E4B2012C0ED82146304604F0F8F967
:1022AC0005462146304604F000FA074903F079FD53
:1022BC000028EBDA00E0002070BD6FF00400FBE7B3
:1022CC00492100000000AD0B807D000070B5054673
:1022DC00012807D14FF08043D3F81C3403F00303DB
:1022EC00012B58D004F0CAFF28B92E4B1B78002BB9
:1022FC0041D0002300E001231C46002B3DD04FF0C1
:10230C002003EFF3118683F31188BFF36F8F24B989
:10231C004FF080430222C3F808234FF08042D2F8DA
:10232C00183403F00303D2F8182412F4803F2BD195
:10233C0000221AB1012B29D0012D27D0FCB1304637
:10234C0000F070FA4FF08043D3F81835002BE4D12D
:10235C00154B1B68002BE0D0134B00221A601B6836
:10236C0001234FF08042C2F81835104AC2F8803170
:10237C000F4A1360D1E70123BEE70026C7E72120EF
:10238C00002103F00DF9DDE70122D2E724B186F339
:10239C001188BFF36F8F70BD4FF080430222C3F8DA
:1023AC000423F8E7780A00200401004000E100E073
:1023BC000800004010B50446104B0121BFF35B8FA1
:1023CC0053E8002F43E800100028F9D1BFF35B8FCE
:1023DC001AB1631E012B0CD910BD094804F065F924
:1023EC00084900234B60CB6001238B6003F0F5FCA4
:1023FC00EFE72046FFF76AFFEEE700BFC8040020B6
:10240C002C7800006404002021F07F4100F5A870B6
:10241C00014B43F8201070470010014000F5A870E4
:10242C00014B53F820007047001001404FF48033EB
:10243C008340024AC2F84433704700BF0010014089
:10244C004FF480338340024AC2F84833704700BFD0
:10245C0000100140014BD3F80405704700100140F7
:10246C0070B50024002C00DD70BD4FF48033A34008
:10247C00194AD2F80423134209D004F150039B00EB
:10248C009BB203F1804303F588331B680BB901340D
:10249C00E8E7204604F0D5F92046FFF7D1FF2046A7
:1024AC00FFF7BCFF0546FFF7D5FF0646294604F0AB
:1024BC00C4F9B0F5000F00D82E46084B53F8345031
:1024CC00002243F83420002DE1D003EBC4035A68FA
:1024DC0031462046A847DAE700100140D00400201E
:1024EC0038B5044C44F8302004EBC004636004F0AD
:1024FC00B4F938BDD004002038B50846044D2C681A
:10250C00214604F09AF904442C6003F0D1F938BD4B
:10251C00DC04002008B50023124AC2F80835002B51
:10252C0018DD114B4FF40032C3F880210022012139
:10253C00112000F0E7F8112000F0C6F801230B4A37
:10254C001360083A13600A4A13600220FFF732FF47
:10255C00002008BD4FF480329A400249C1F8042390
:10256C000133DCE70010014000E100E008100140FD
:10257C00D804002038B5B0F1FF3F07D0441E002C22
:10258C0007DD104B9C4205DD0F4C03E000F500000D
:10259C00F4E70024FFF75EFF0C4B1D68294604F09E
:1025AC004CF9B0F5000F00D3002421180131B1F51E
:1025BC00000F00D304490023054A29441846FFF7AD
:1025CC008FFF38BDFEFF7F00FFFF7F00DC04002083
:1025DC000525000008B5FFF73DFF024B196804F014
:1025EC002CF908BDDC04002038B54FF02003EFF3C4
:1025FC00118583F31188BFF36F8FFFF72BFF054B0A
:10260C001C68214604F019F9204485F31188BFF3A6
:10261C006F8F38BDDC0400200A4A9368C3F8A80009
:10262C0009490968C3F8AC1008494B6843F080535A
:10263C004B60002383F31188BFF36F8F9368D3F83B
:10264C00AC007047240A0020D082000000ED00E0AE
:10265C0013498A684FF030001044EFF3098C80E87E
:10266C00F01F202080F31188BFF36F8F0D4F4FF0B8
:10267C0000664A6A8A603E60D2F8A8000023C2F85D
:10268C00A83080F3118804B5104600F0A1FDBDE818
:10269C00044002F1300090E8F01F8CF30988704779
:1026AC00240A002004ED00E01EF0040F0CBFEFF331
:1026BC000880EFF30980816911F8021C0229FFD010
:1026CC0001B504F016F901BD43B2002B08DB00F094
:1026DC001F005B09012202FA00F0024A42F82300B3
:1026EC00704700BF00E100E04209054B53F822207F
:1026FC0000F01F00012303FA00F01040704700BFE8
:10270C0000E100E0013143B2002B08DB4901C9B202
:10271C0003F1604303F5614383F80013704700F045
:10272C000F004901C9B2014B1954704714ED00E078
:10273C0010B4A2F120040D4921F0010142F8081C4B
:10274C0042F8203C019B42F81C3C029B42F8183C8E
:10275C00039B42F8143C4FF0807342F8043C046530
:10276C000023C0F8A83010BC704700BF9F5E00006B
:10277C00164B9A68DAB110F1160F1AD010B4D2F8C1
:10278C009830A3F12004844205D8834208D98B42A7
:10279C0008D8002100E0002131B9002010BC70479E
:1027AC000021F9E70121F7E7D2F89800F6E70020BD
:1027BC007047D2F898308B4294BF0021012109B99F
:1027CC0000207047D2F89800704700BF240A002000
:1027DC0008B50D461446084B986000F0F9FC2046ED
:1027EC0085F30988002163B681F31188BFF36F8FDD
:1027FC000022002303F04DFB240A00200149102283
:10280C000A60704710ED00E072B6404080F311880A
:10281C00BFF36F8FBFF34F8F30BF62B6BFF36F8FB5
:10282C00704700BF72B6494081F3118820BF80F316
:10283C00118862B6704700BF70B582B004461F4D58
:10284C001F4BED1AED0801264FF0000366F302034F
:10285C006FF3C50365F38F13ADF8003083684268DE
:10286C0001681848FEF7CCFE4FF0000366F3020334
:10287C006FF3C50365F38F13ADF8003063692269FC
:10288C00E1681148FEF7BCFE4FF0000266F302024D
:10289C006FF3C50265F38F12E1690C48FEF7EEFE8B
:1028AC004FF0000266F302026FF3C50265F38F125C
:1028BC00A1690748FEF7E2FE02B070BDE4790000A2
:1028CC00C4790000987D0000C87D0000F87D0000F0
:1028DC00087E000030BFFFF7FDBF00BF08B50B4BF3
:1028EC000B4A22F07F029A60BFF34F8FBFF36F8FBA
:1028FC00D3F8882022F47002C3F8882001F08AFEF5
:10290C0002F0CAFE00F026FC01F0AAFE00ED00E089
:10291C000000000001B572B60B4A106A00281EBFF9
:10292C000021116204F0E3FC62B6EFF30580A0F124
:10293C0010004FEAC0000549014409C99847BDE899
:10294C000140034908470000240A00208C7800004D
:10295C00D1300000002080F31488BFF36F8F04F097
:10296C0031FF00200D490860BFF34F8F0C4880F3F6
:10297C00088800F0C5FB202080F3118809484FF42B
:10298C000261401880F30988EFF314800221084398
:10299C0080F31488BFF36F8FFFF7A0FF94ED00E076
:1029AC00A011002020130020EFF30880EFF3098121
:1029BC0001B5724600F01CFB01BD00BF08B54E4BC3
:1029CC004E4A9B1ADB084FF00001012262F3020110
:1029DC006FF3C50163F38F114948FEF7C1FE494BF4
:1029EC009B6A13F0007F21D1464B9B6A13F0807FCA
:1029FC002DD1444B9B6A13F4002F39D1414B9B6A68
:102A0C0013F4802F45D13F4B9B6A13F4003F51D1F7
:102A1C003C4B9B6A13F4803F5DD13A4A936A6FEA50
:102A2C0003436FEA13439362002008BD324B334AD1
:102A3C009B1ADB084FF00001012262F302016FF3D5
:102A4C00C50163F38F113048FEF78AFECCE72A4BA1
:102A5C002A4A9B1ADB084FF00001012262F30201A3
:102A6C006FF3C50163F38F112848FEF779FEC0E7B9
:102A7C00214B224A9B1ADB084FF00001012262F322
:102A8C0002016FF3C50163F38F112148FEF768FE55
:102A9C00B4E7194B194A9B1ADB084FF000010122CD
:102AAC0062F302016FF3C50163F38F111948FEF74E
:102ABC0057FEA8E7104B114A9B1ADB084FF0000198
:102ACC00012262F302016FF3C50163F38F11124807
:102ADC00FEF746FE9CE7084B084A9B1ADB084FF0B2
:102AEC000001012262F302016FF3C50163F38F1140
:102AFC000A48FEF735FE90E7E4790000C47900003F
:102B0C00387E000000ED00E0507E0000647E000086
:102B1C00807E0000A07E0000C87E0000E47E0000E5
:102B2C0008B500220A70084B08495B1ADB084FF005
:102B3C000001012060F3020162F3C50163F38F1100
:102B4C000348FEF70DFE08BDE4790000C4790000CF
:102B5C00107F000070B505460E4614465E4B5F4A6A
:102B6C009B1ADB084FF00001012262F302016FF3A4
:102B7C00C50163F38F115A48FEF7F2FD594B9B6A5E
:102B8C0013F4805F24D1574B9B6A13F4006F30D140
:102B9C00544B9B6A13F4007F3CD1524B9B6A13F449
:102BAC00806F65D14F4B9B6A13F4807F71D14D4B75
:102BBC009B6A13F4005F7DD14A4A936A43F47F43C6
:102BCC0093620121284603F0A0FE2070002070BD06
:102BDC00414B424A9B1ADB084FF00001012262F381
:102BEC0002016FF3C50163F38F113F48FEF7B8FD87
:102BFC00C9E7394B394A9B1ADB084FF00001012217
:102C0C0062F302016FF3C50163F38F113748FEF7CE
:102C1C00A7FDBDE7304B314A9B1ADB084FF0000192
:102C2C00012262F302016FF3C50163F38F11304887
:102C3C00FEF796FD2B4B996B9B6A13F4004FACD0AF
:102C4C00254B264A9B1ADB084FF00002012060F34B
:102C5C0002026FF3C50263F38F122648FEF70EFDD6
:102C6C00002E9AD01F4A936A23F40043936294E790
:102C7C00194B1A4A9B1ADB084FF00001012262F330
:102C8C0002016FF3C50163F38F111B48FEF768FD5A
:102C9C0088E7114B114A9B1ADB084FF00001012207
:102CAC0062F302016FF3C50163F38F111348FEF752
:102CBC0057FD81E7084B094A9B1ADB084FF00001CE
:102CCC00012262F302016FF3C50163F38F110C480B
:102CDC00FEF746FD70E700BFE4790000C479000000
:102CEC00347F000000ED00E04C7F0000607F0000AE
:102CFC00747F0000907F0000A87F0000C47F00005C
:102D0C00DC7F0000F8B505460C461646644B654A58
:102D1C009B1ADB084FF00001012262F302016FF3F2
:102D2C00C50163F38F116048FEF71AFD5F4B9B6A78
:102D3C0013F0100F32D15D4B9B6A13F0080F3ED18C
:102D4C005A4B9B6A13F0020F4AD16FF01507574B81
:102D5C009B6A13F0010F75D1544B9B6A13F0200F33
:102D6C0040F08180514B9B6A13F0100F04D14F4BF4
:102D7C009C6A14F0020405D04C4B5C6814F400649B
:102D8C0040F08280494A936A43F0FF039362012129
:102D9C00284603F0BAFD30702046F8BD404B414A3E
:102DAC009B1ADB084FF00001012262F302016FF362
:102DBC00C50163F38F113E48FEF7D2FCBBE7384BDD
:102DCC00384A9B1ADB084FF00001012262F3020122
:102DDC006FF3C50163F38F113648FEF7C1FCAFE703
:102DEC002F4B304A9B1ADB084FF00001012262F393
:102DFC0002016FF3C50163F38F112F48FEF7B0FC8E
:102E0C002A4B5F6B9B6A13F0800F02D16FF0150792
:102E1C009DE7234B234A9B1ADB084FF0000201214C
:102E2C0061F302026FF3C50263F38F123946234834
:102E3C00FEF724FC002C8AD01C4A936A23F08003F2
:102E4C00936284E7164B174A9B1ADB084FF000017C
:102E5C00012262F302016FF3C50163F38F1118486D
:102E6C00FEF77EFC78E70E4B0E4A9B1ADB084FF000
:102E7C000001012262F302016FF3C50163F38F11AC
:102E8C001048FEF76DFC6DE729463846FFF770FCDD
:102E9C00044600283FF476AF80F30988022471E7DA
:102EAC00E4790000C47900000C80000000ED00E023
:102EBC0024800000607F00005880000070800000BB
:102ECC0088800000DC7F000070B505460C462D4B59
:102EDC002D4A9B1ADB084FF00001012262F302011C
:102EEC006FF3C50163F38F112848FEF739FC0023FB
:102EFC002370274BDE6A16F0020605D1244BD86AE4
:102F0C0010F0804012D170BD1E4B1F4A9B1ADB087B
:102F1C004FF00001012262F302016FF3C50163F36C
:102F2C008F111C48FEF71CFC0020ECE7154B164AD1
:102F3C009B1ADB084FF00001012262F302016FF3D0
:102F4C00C50163F38F111448FEF70AFC134B1B7871
:102F5C0043B9134B1B785BB9124B1B889BB26BB9F3
:102F6C003046D0E7224601212846FFF7CBFECAE7C0
:102F7C00224601212846FFF7EDFDC4E72846FFF75E
:102F8C001DFDC0E7E4790000C4790000A8800000B2
:102F9C0000ED00E0C0800000E480000028ED00E0BF
:102FAC0029ED00E02AED00E008B50A460B480C4B71
:102FBC00C01AC0084FF00003012161F302036FF344
:102FCC00C50360F38F130F2A05DC0649103A064837
:102FDC00FEF78AFB08BD0549F8E700BFE47900005D
:102FEC00C479000004810000388100001C810000BD
:102FFC0070B58AB02B4B5D68C5F30805002383F3CD
:10300C001188BFF36F8F02F07F43B3F17F4F2AD14A
:10301C0002F00C03082B10D012F0080F20D00C4635
:10302C0000260DF127022946204603F070FC0546C8
:10303C009DF82730D3B10AB070BD1B4B1B4A9B1AAD
:10304C00DB084FF00001012262F302016FF3C501AE
:10305C0063F38F111648FEF783FB00263446E0E736
:10306C0004460126DDE700263446DAE72022214615
:10307C0001A803F0E8FC4EB1089BC3F308025AB94F
:10308C006FEA53236FEA4323089305E0089B23F46C
:10309C00FF7323F00103089301A9284603F01DFCDC
:1030AC00C9E700BF00ED00E0E4790000C47900003E
:1030BC004C810000024A536943F01003536170477E
:1030CC0000ED00E0044B9968586A884203D003492C
:1030DC004FF080520A607047240A002004ED00E093
:1030EC00064B1868C0F307200023834205DA034A15
:1030FC009360002111610133F7E7704790ED00E018
:10310C0010B572B6002484F31388FFF7E9FF234649
:10311C0008E003F120010E4A4FF0FF3042F8210085
:10312C000133DBB2072BF4D9002308E003F1600173
:10313C00074A4FF0FF3042F821000133DBB2072B76
:10314C00F4D962B6BFF34F8FBFF36F8F10BD00BFC2
:10315C0000E100E0002206E002F00F01094B0B44F5
:10316C00202119760132262A0ADC53B2002BF3DB1C
:10317C0003F1604303F56143202183F80013F1E769
:10318C00704700BFFCEC00E008B5084B9B6883421D
:10319C0002D002F047FA08BDEFF30583002BF8D0FC
:1031AC00034A536843F080535360F2E7240A00202B
:1031BC0000ED00E008B5034B034A0121034803F07E
:1031CC00FBFB08BD00000120000000207C810000FA
:1031DC0008B5D0F89830203B0448036020234360A6
:1031EC00034B8360012103F0EBFB08BDE0040020DE
:1031FC0000000B15064A90600B6823F01F03034375
:10320C0043F01003D3608B6843F0010313617047E4
:10321C0090ED00E010B50446072803D8FFF7EAFF4D
:10322C00204610BD094B0A4A9B1ADB084FF00002DE
:10323C00012161F302026FF3C50263F38F120146A1
:10324C000448FEF71BFA6FF01500EAE7DC79000082
:10325C00C4790000888100002DE9F04780460F46B4
:10326C009A461646002409E02946F0B203F085FB85
:10327C00064610F1160F25D001360134BC4221DA76
:10328C0004EB440508EB85056A68002AF5D0BAF111
:10329C00000FE9D0284603F05FFB0028E4D10B4B6C
:1032AC000B4A9B1ADB084FF00002012161F302026A
:1032BC006FF3C50263F38F1221460648FEF7DEF961
:1032CC006FF015063046BDE8F08700BFDC790000D2
:1032DC00C4790000B081000010B5034C01232278A2
:1032EC00FFF7BAFF207010BD760A002008B5002346
:1032FC00084A1278FFF7B0FF10F1160F08D00346FA
:10330C00072B05DC044A9360002111610133F7E7B8
:10331C0008BD00BF760A002090ED00E0034B0522AB
:10332C005A60BFF34F8FBFF36F8F704790ED00E083
:10333C00BFF35F8F014B00225A60704790ED00E0A5
:10334C0038B50E4B1D68082D15D8FFF7F1FF00247A
:10335C00A5420AD9094B596804EB4402930019445D
:10336C002046FFF747FF0134F2E7054B1D70FFF7CE
:10337C00D5FF002038BD4FF0FF30FBE7E4810000A3
:10338C00760A0020014B1860704700BF0C0000202B
:10339C004FF02003EFF3118283F31188BFF36F8F8B
:1033AC0001230649C1F840354FF08041C1F878350A
:1033BC0082F31188BFF36F8F0020704700E001404B
:1033CC00C0B24FF08043C3F81C05BFF34F8F0549C3
:1033DC00CA6802F4E062044B1343CB60BFF34F8F17
:1033EC0000BFFDE700ED00E00400FA0530B108B5C0
:1033FC008001034B43F00103984708BD704700BFA1
:10340C00A07A000070B443685E68324B13403248B7
:10341C00834227D012D8062B26D004D9B3F5801FAF
:10342C0009D1012016E00BB3022B01D1042011E0CD
:10343C006FF015003FE06FF015003CE02748834229
:10344C0016D0B3F5A00F01D1032003E0B3F5800F24
:10345C003DD1022012F0100F0CD112F0200F2CD005
:10346C00012408E00720F5E70620F3E70020F1E748
:10347C000520EFE70324C2F3402312F4807F0CBF36
:10348C000125002512F4007F06D012F4006F16D02F
:10349C0001228A40C6F8082501F01F0143EA4503C2
:1034AC0043EA840343EA002301F5E0714FF0A042A4
:1034BC0042F82130002070BC70470024DBE712F486
:1034CC00806FE9D001228A40C6F80C25E4E76FF042
:1034DC001500F0E70600F0000600100002004000A6
:1034EC0070B582B00023019300932E4B1C680CB96D
:1034FC0000210AE069462C4803F092FB0190294B0D
:10350C0000221A601B68F3E70131072926D801F164
:10351C0040039B009AB201238B402448D0F804034B
:10352C000342F1D002F1804303F5C0431B68002B2A
:10353C00EAD001F5A2731D4850F82300C0F3042013
:10354C00012303FA00F0019B0343019302F1804332
:10355C0003F5C04300221A601B68D5E7019E16B91B
:10356C00DCB902B070BD124B596819B10D4649B1A6
:10357C000D6807E00D4605E06DB12B4605B12B68D3
:10358C0029461D460029EBD08A683240F4D04B689E
:10359C0005489847F0E72B46F2E7034803F00EFB8B
:1035AC00DFE700BF7C6100407478000000600040E1
:1035BC00F004002010B5144BD3F80443E4B20023FC
:1035CC0000E00133072B1DD803F5A2720E4951F808
:1035DC002220C2F304229042F3D124FA03F212F017
:1035EC00010FEED00A4603F5A27051F8201021F01D
:1035FC00010142F8201001219940C2F80813D8B2F9
:10360C0000F02EFD10BD00BF0060004070B582B010
:10361C0004460D460DF1070000F03EFD1C4B984290
:10362C0032D19DF8073003F140029200194E03F598
:10363C00A27356F8231021F4473121F4407146F857
:10364C00231056F82310240204F4F8542D0405F426
:10365C0040352C430C4346F8234002F1804303F5DC
:10366C00C043002018601B689DF8071001F5A27379
:10367C0056F8232042F0010246F8232001238B4008
:10368C00C6F8043302B070BD6FF01200FAE700BF49
:10369C000000AD0B0060004008B50B4B1B780BB164
:1036AC00002008BD084B01221A70002205210620BB
:1036BC00FFF728F80620FFF707F8044B4FF00042FD
:1036CC00C3F80423ECE700BF770A00200060004039
:1036DC0043681A68B1F5164F6FD03AD8B1F5165F3A
:1036EC006ED00AD9B1F5E14F75D024D947F6122323
:1036FC0099422BD14FF4000313E0B1F5966F61D0D2
:10370C0007D9B1F5166F63D0B1F5965F10D13C4B6C
:10371C0007E0B1F5967F58D0B1F5167F05D14FF47F
:10372C001C33C2F82435002070476FF01500704729
:10373C006FF015007047B1F5615F4ED0B1F5964F43
:10374C0001D1304BEDE76FF0150070476FF01500AD
:10375C007047B1F5613F42D009D9B1F5612F46D020
:10376C001FD9294B994248D14FF08053D9E7B1F575
:10377C00963F37D005D9B1F5E13F0FD14FF0EB7340
:10378C00CFE74DF6C02399422ED0B1F5614F02D14F
:10379C004FF46B03C5E76FF0150070476FF0150021
:1037AC0070471A4B994225D0B1F5E12F02D14FF059
:1037BC00E863B6E76FF0150070474FF41D03B0E7F0
:1037CC00134BAEE74FF49E23ABE74FF4A033A8E7BF
:1037DC004FF41D23A5E70F4BA3E70F4BA1E74FF0C9
:1037EC006C739EE70D4B9CE74FF4650399E74FF024
:1037FC00706396E74FF0806393E76FF015007047A6
:10380C0000B0130000A04E0040420F0090D0030007
:10381C000050270000C0750000F03A0000903A01FB
:10382C002DE9F04105460F46D0F8108003F026FD37
:10383C0020B9164B1B78ABB1002300E001239BB1E0
:10384C004FF02003EFF3118483F31188BFF36F8FD4
:10385C002646284603F070FB50B984F31188BFF359
:10386C006F8FEDE70123EAE7284603F0B4FB064629
:10387C00414601F8107F0122284603F077FB86F3BE
:10388C001188BFF36F8FBDE8F08100BF780A00206C
:10389C0038B504460D4601F1120000F04BFC144BF8
:1038AC00984211D1AB7C04F590710C34114AA233BF
:1038BC0042F8331002EBC3035C60A97C01238B40FC
:1038CC00C2F80435002038BD0B4B0C4A9B1ADB08A0
:1038DC004FF00001012262F302016FF3C50163F3A3
:1038EC008F110748FDF73CFF6FF00400EBE700BFBA
:1038FC000000AD0B00F00140FC790000C479000021
:10390C003882000030B585B005460A4B6C460FCBAB
:10391C0084E80F00002201210220FEF7F3FE0220B2
:10392C00FEF7D2FE00222146284603F07BFB05B0B1
:10393C0030BD00BF907A000008B5FDF771FF094B50
:10394C00094A9B1ADB084FF00001012262F30201C5
:10395C006FF3C50163F38F110448FDF701FF0020DD
:10396C00FFF72EFDCC790000C479000084820000A2
:10397C00064B1B68B3F1FF3F03D0062B04D000208D
:10398C007047034B1B78F8E701207047300100109B
:10399C00E00F00F0094B1A7808331B68C3F30313CC
:1039AC00062A01D000207047033B002B04D8DFE827
:1039BC0003F001000120704700207047E00F00F079
:1039CC00064B1B68B3F1FF3F03D0062B04D000203D
:1039DC007047034B1B78F8E701207047300100104B
:1039EC00E00F00F0094B1A7808331B68C3F303137C
:1039FC00062A01D000207047033B002B04D8DFE8D7
:103A0C0003F001000120704700207047E00F00F028
:103A1C00064B1B68B3F1FF3F03D0062B04D00020EC
:103A2C007047034B1B78F8E70120704730010010FA
:103A3C00E00F00F0094B1A7808331B68C3F303132B
:103A4C00062A01D000207047033B002B04D8DFE886
:103A5C0003F001000120704700207047E00F00F0D8
:103A6C00094B1A7808331B68C3F30313062A01D0D9
:103A7C0000207047033B002B04D8DFE803F0010063
:103A8C000120704700207047E00F00F00D4B1A68C2
:103A9C00B2F1FF3F05D00C4B1B68062A08D0002062
:103AAC0070470A4B1A7808331B68C3F30313F4E707
:103ABC00033B012B04D8DFE803F001010020704721
:103ACC00012070473001001034010010E00F00F0AD
:103ADC00064B1B68B3F1FF3F03D0062B04D000202C
:103AEC007047034B1B78F8E701207047300100103A
:103AFC00E00F00F0064B1B68B3F1FF3F03D0062B21
:103B0C0004D000207047034B1B78F8E70120704766
:103B1C0030010010E00F00F0084B1B68084A1268D7
:103B2C00062B01D000207047052A03D8032A03D3A3
:103B3C0000207047012070470120704730010010B1
:103B4C0034010010084B1B68084A1268062B01D080
:103B5C0000207047062A03D8032A03D3002070479D
:103B6C000120704701207047300100103401001013
:103B7C00024BD3F80034002BFAD0704700E0014020
:103B8C0008B5034BC3F80405FFF7F2FF08BD00BFEF
:103B9C0000E00140014B024A1A60704724000020EB
:103BAC000090D00338B5FFF7E3FE28B1704B1B68CB
:103BBC00C3F304236F4A1360FFF7ECFE10B16E4B96
:103BCC006E4A1A60FFF7FCFE28B16D4B1B68C3F3FD
:103BDC0042336C4A1360FFF705FF20B16A4AD36881
:103BEC0023F08073D360FFF713FF40B14FF0804395
:103BFC000022C3F80C21C3F81021C3F83825FFF7B5
:103C0C0019FF10B1614B03221A60FFF729FF58B15D
:103C1C005F4B05221A60783301221A60703B002238
:103C2C001A60043B3F221A60FFF730FF002846D091
:103C3C004FF08052D2F80414564BC3F82015D2F82A
:103C4C000814C3F82415D2F80C14C3F82815D2F8AC
:103C5C001014C3F82C15D2F81414C3F83015D2F87C
:103C6C001814C3F83415D2F81C14C3F84015D2F844
:103C7C002014C3F84415D2F82414C3F84815D2F80C
:103C8C002814C3F84C15D2F82C14C3F85015D2F8DC
:103C9C003014C3F85415D2F83414C3F86015D2F8A4
:103CAC003814C3F86415D2F83C14C3F86815D2F86C
:103CBC004014C3F86C15D2F84424C3F87025FFF7F0
:103CCC0007FF28B1344B1B6803F04F03334A1360D2
:103CDC00FFF710FF60B14FF08043D3F8003413F0BE
:103CEC00010F05D04FF080436FF00102C3F80024A0
:103CFC00FFF712FF20B12A4A136843F48063136064
:103D0C00FFF720FF38B14FF01023D3F808224FF003
:103D1C008043C3F858254FF01023D3F80032002B02
:103D2C0008DB4FF01023D3F80432002B02DBFFF733
:103D3C0031FF38BD0120FFF723FF4FF0102415256C
:103D4C00C4F80052FFF714FFC4F80452FFF710FF39
:103D5C000020FFF715FFBFF34F8F1249CA6802F41A
:103D6C00E062114B1343CB60BFF34F8F00BFFDE7F5
:103D7C00240300104035014074C007400DF0ADBA6B
:103D8C00440200103C050040F0ED00E0A0050040AE
:103D9C001056004000C0004058020010E40E0040D5
:103DAC003C17004000ED00E00400FA050B4BD9680D
:103DBC0041F08072DA600A4B186840F001021A6018
:103DCC005A68074B5B689B1AB3F50A5FF9D3044B2F
:103DDC00186003F55D43F033D9607047F0ED00E0F7
:103DEC00001000E0064B1B793BB9054B1860012213
:103DFC001A7100225A71034870470348704700BF7C
:103E0C00100500200000AD0B0C00AD0B08B510B177
:103E1C00012827D008BD4FF08042D2F8183403F0A7
:103E2C000303D2F8182412F4803F13D14FF08043CF
:103E3C000022C3F81825114B00221A601B684FF0A2
:103E4C0080430222C3F80423FFF7B0FF0C4B01227E
:103E5C001A60DFE7012BE9D14FF080430122C3F850
:103E6C001825E8E7074B00221A601B684FF08043C7
:103E7C000122C3F804231A60CCE700BF0401004000
:103E8C00080000400001004030B583B0044618B172
:103E9C00012813D003B030BD4FF080430222C3F889
:103EAC00082303F5827300221A601B68394B012228
:103EBC001A60012C0FD042F2107552E001234FF022
:103ECC008042C2F8083302F580720021116012683A
:103EDC00314A1360EDE701238DF8073042F210757B
:103EEC0018E04FF08042D2F8183403F00303CDF8F9
:103EFC000730D2F8183413F4803F20D10023002B64
:103F0C0042D09DF80730012B3ED1012003F028F957
:103F1C00013D39D0002CE4D0012C01D00023EEE778
:103F2C004FF08042D2F80C3403F001038DF80730C7
:103F3C00D2F80C3413F4803F03D10023DFE70123C4
:103F4C00DDE70123DBE74FF08043D3F8183413F49B
:103F5C00803F15D10023BBB1012003F001F9013DD5
:103F6C0012D0002CEFD0012C01D00023F3E74FF03E
:103F7C008043D3F80C3413F4803F03D10023EAE7D9
:103F8C000123E8E70123E6E7012C83D1034B002250
:103F9C005A717FE70C00004004000040100500201F
:103FAC0008B51B4B1B6883B1194B00221A601B68A8
:103FBC004FF080430122C3F80823164B5B7923B9D9
:103FCC00144B5A711B6800209847134B1B689BB10C
:103FDC00114B00221A601B684FF08043D3F8182451
:103FEC00D3F8183412F0030F07D101234FF080429D
:103FFC00C2F818350832136008BD4FF08043022216
:10400C00C3F80823034B1B6801209847F4E700BF53
:10401C00000100401005002004010040044BDA6C44
:10402C00012383401A4214BF01200020704700BFB7
:10403C0018050020012303FA00F0024AD36C034355
:10404C00D364704718050020012303FA00F0034ADB
:10405C00D36C23EA0003D364704700BF180500201B
:10406C0038B5044603F089F808B9094838BD4FF053
:10407C002003EFF3118583F31188BFF36F8F204674
:10408C00FFF7E2FF85F31188BFF36F8F0148EDE76F
:10409C000400AD0B0000AD0B2DE9F8438046002465
:1040AC00FF25174F13E02046FFF7C4FF88F80040A8
:1040BC00144F86F31188BFF36F8F124B9F421BD0A6
:1040CC00012303FA09F325EA03050134E4B29DB197
:1040DC004FF02003EFF3118683F31188BFF36F8F3A
:1040EC00A14625FA04F313F0010FE2D02046FFF7A6
:1040FC0095FF0028DDD1D6E73846BDE8F88300BF30
:10410C000200AD0B0000AD0B01238340034A126883
:10411C00134214BF01200020704700BF6805002027
:10412C00012303FA00F0024A13680343136070473B
:10413C00680500202DE9F84381460024154EDFF870
:10414C005C8011E02046FFF7EBFF89F80040DFF8B8
:10415C00488087F31188BFF36F8F0F4B984516D0AB
:10416C0026EA05060134E4B28EB14FF02003EFF3DA
:10417C00118783F31188BFF36F8F0125A54035425A
:10418C00E7D02046FFF7C0FF0028E2D1DAE740462F
:10419C00BDE8F883FFFF0F000000AD0B0200AD0B74
:1041AC0010B5114C032323616361104AA261104BBB
:1041BC00E3614FF4806323620023A3626362E362D2
:1041CC0022660C4A62661022A2662367E366636766
:1041DC000949E01D02F0F8FB0849204602F0F4FB07
:1041EC002023A37110BD00BF6C050020A482000029
:1041FC002406002014060020B0820000B4820000C7
:10420C002DE9F84304460E46154600EB40032D4AB3
:10421C0002EBC302936A576ABB424BD800EB4002D5
:10422C00284901EBC202D2F82080A8EB070909F15A
:10423C00FF32954204D913449D4216D900203EE02A
:10424C00DFF88080631C03EB430308EBC30358685F
:10425C002A463146384402F0F6FB3D4404EB440454
:10426C0008EBC4046562012029E0431C03EB430303
:10427C00144A02EBC30358684A463146384402F0EC
:10428C00E2FBA7EB08077F1907D104EB44040D4BA5
:10429C0003EBC4046762012011E0631C03EB4303CE
:1042AC00084A02EBC3033A4606EB0901586802F0D0
:1042BC00CAFBEAE7DB1B013BAB42C1D20020BDE8E5
:1042CC00F88300BF6C050020064B00EB400203EBAB
:1042DC00C202926A00EB400003EBC000406A801AF5
:1042EC00704700BF6C050020034B044A934201D277
:1042FC001833FAE7704700BF2C7800008C78000068
:10430C0070B50646114B53F8204009E0404217E0C7
:10431C00EB681870EA68537843F001035370083463
:10432C00731C0A4A52F82330A3420DD965682368DE
:10433C0028469847002DF2D00028EBD00028E5DB6A
:10434C00FF28E5DDFF20E3E770BD00BFBC82000065
:10435C0038B5054628B303782BB3144C00E0183459
:10436C00134B9C4208D0204602F018FF0028F6D0D0
:10437C002368AB42F3D112E00C4C00E018340C4B28
:10438C009C420BD0204602F009FF0028F6D0216891
:10439C00284602F04EFB0028F0D100E00024204615
:1043AC0038BD0446FBE70024F9E700BF2C78000079
:1043BC008C78000004280CD8DFE800F0030D05070A
:1043CC00090006487047064870470648704706487B
:1043DC007047064870470648704700BF24830000AA
:1043EC00F88200000883000014830000D4820000CF
:1043FC00E482000030B108B502F046FF20B103782A
:10440C0023B108BD024870470148FAE70048F8E7B5
:10441C00348300002DE9F04182B005460E464FF082
:10442C002003EFF3118783F31188BFF36F8F01F033
:10443C00E3F80446294B2A4A9B1ADB084FF0000884
:10444C00012262F302086FF3C50863F38F18284644
:10445C00FFF7B0FF0246ADF8008000232946214843
:10446C00FDF7CEF81EB1F369C3F308032BBB1B4B4E
:10447C001B4A9B1ADB084FF00008012262F302086A
:10448C006FF3C50863F38F182046FFF7B3FFFCF7F3
:10449C007BFF0246434621461348FDF725F931467A
:1044AC002846FFF749FA87F31188BFF36F8F204630
:1044BC00FEF76AFE02B0BDE8F081084B084A9B1A71
:1044CC00DB084FF00001012262F302016FF3C5011A
:1044DC0063F38F110548FDF743F9C8E7E479000051
:1044EC00C47900003C8300008883000064830000D2
:1044FC00F0B589B00446154BB02505FB0035144BBF
:10450C004FF4B07606FB003606AF0346114A08217D
:10451C00384601F05DFB04EB44040F4800EBC40487
:10452C000597012304930F23039300230293019314
:10453C0000940A4B4FF4A0723146284600F05CF907
:10454C006B7B23F004036B7309B0F0BD40010020BA
:10455C00C0110020A0830000240A00200773000073
:10456C0070B586B000F07AFF1E4D1F4B5D621F4B7D
:10457C000593012304930024039402940194009462
:10458C001B4B4FF480621B49284600F035F9064658
:10459C006B7B23F004036B73284602F092FF002C14
:1045AC0007DD114B03F118029A61DA61304606B04F
:1045BC0070BD2046FFF79CFF0F4BB02202FB04326C
:1045CC0004EB4401084B03EBC103DA601C7504EBEC
:1045DC0084110A4A02EB411202F502625A6001345C
:1045EC00DDE700BFF0010020240A0020AC830000AE
:1045FC0039460000A00D00204001002020130020AF
:10460C0008B50146014A0248FEF7E2F839460000B7
:10461C00F001002008B50348034A121A002102F0E9
:10462C0036FA08BD580000207C0A002008B50A4B59
:10463C0001221A700220FFF763FE01F055FA0320E5
:10464C00FFF75EFE00F03CF9FBF792FF034A137B89
:10465C0023F00103137308BD780A0020F001002039
:10466C0000B5ADB0FCF7A6FD1A4B83F308881A4CC5
:10467C00636943F400736361E02384F822300025FE
:10468C00E57725766576A576636A43F4E023636265
:10469C00FEF710FDFEF7B2F84FF0FF33A362E362B2
:1046AC00FEF74EFEFEF786FD01248DF80D408DF8C9
:1046BC000C4026952795094BC3F808D0FFF714FE3C
:1046CC002846FFF71DFE2046FFF71AFEFFF748FFAE
:1046DC00FFF796FF401B002000ED00E0240A0020AD
:1046EC0010B5064C0020064B9C4206D2204602F028
:1046FC0062FD002801DB1C34F5E710BD3000002002
:10470C0030000020F0B583B00C461F464FF020035C
:10471C00EFF3118183F31188BFF36F8F43696BB192
:10472C00236043691B684361836901338361002003
:10473C0081F31188BFF36F8F03B0F0BD164600F103
:10474C00080556EA070304D1002323606FF00B0021
:10475C00EEE7CDE900670246284600F067FC00282A
:10476C00EAD1024B9B685B692360E5E7240A0020D1
:10477C004FF02003EFF3118183F31188BFF36F8F98
:10478C000A4B1B6B834204D11A6F084B1A6307E068
:10479C00134613B11A6F8242FAD10BB1026F1A672A
:1047AC0081F31188BFF36F8F704700BF240A00207C
:1047BC0010B5044640B1202204F1740002F00DF94A
:1047CC00002084F8930010BD014B9C68F3E700BFF8
:1047DC00240A002038B514461D4654EA050302D1BC
:1047EC0002F054FD38BD2B460249183000F0B6FFDC
:1047FC00F8E700BF077500002DE9F04F85B00446BF
:10480C000F4615461E46DDF838A0DDF83C90DDF865
:10481C004080DDF84CB000F158038365C365129BF2
:10482C000422119902F036FD2A463946204602F040
:10483C0013FD0546CDF80880CDF80490CDF800A006
:10484C003346024639462046FDF772FF0023636566
:10485C002666C4F864A0C4F86890C4F86C804FF065
:10486C002003EFF3118283F31188BFF36F8F134B87
:10487C00196B21671C6382F31188BFF36F8FBBF137
:10488C00000F13D01F22594604F1740002F0A5F852
:10489C00002384F89330094B9B685BB1D3F8A430A8
:1048AC00C4F8A430284605B0BDE8F08F002384F886
:1048BC007430F0E7C4F8A430F4E700BF240A0020F9
:1048CC002DE9704386B0234C234B9C4215D2E36AEE
:1048DC000593236A0493E3690393A36902936369C1
:1048EC00019323690093E368A26861682068FFF76D
:1048FC0083FF23685C653034E6E700F03DFB154C24
:10490C001BE0266823EAE3734FEAE3794FEAC931E7
:10491C0041EA5341D80340F2E7354FF47A72002351
:10492C0040194FF0000545EB0101FBF7D1FB0246A6
:10493C000B463046FFF74EFF3034074B9C4204D2F7
:10494C00636AB3F1FF3FF7D0DBE700F0C5FB06B0BD
:10495C00BDE87083300000203000002008B502F064
:10496C00BEFE044B1862FDF71BFB00B108BDFDF742
:10497C004BFFFBE7240A00202DE9F04383B00446EB
:10498C001D464FF02003EFF3118783F31188BFF31B
:10499C006F8FC16899B900294FD13A4B9B6893F935
:1049AC000E3023610131E160364B9B68A36087F3C5
:1049BC001188BFF36F8F002003B0BDE8F08316465B
:1049CC008268304B9B689A42E5D055EA06010CBFD1
:1049DC004FF001084FF0000831D092F90E90494683
:1049EC0093F90E0002F095FC81452FDC4FF0000985
:1049FC000096019522463946234800F017FB002803
:104A0C00DAD04FF02003EFF3118583F31188BFF355
:104A1C006F8F23689C421FD0F3B1216993F90E006C
:104A2C0002F077FC0146204602F07EFCB0B9B9F1E9
:104A3C00000F15D04FF0010812E02369B1E787F39E
:104A4C001188BFF36F8F6FF00F00B5E7014620465A
:104A5C0002F06AFC8146CBE72169E4E74FF00108DC
:104A6C00B8F1000F06D185F31188BFF36F8F6FF08B
:104A7C000A00A1E72946044800F062FA6FF00A0028
:104A8C009AE700BF240A0020580A00208268002AF6
:104A9C0035D038B504461D4B9B689A4232D1DA7B2F
:104AAC00013ADA73C368012B05D9013BC36000F0EE
:104ABC0013FB002038BD4FF02003EFF3118583F377
:104ACC001188BFF36F8F016902F02EFC204602F0B3
:104ADC006FFDA06060B190F90E3023610023C0F827
:104AEC00AC3002F0EEFC2946094800F029FADEE76A
:104AFC000023E36085F31188BFF36F8FD7E76FF066
:104B0C00150070474FF0FF30D4E700BF240A002097
:104B1C00580A002038B504464FF02003EFF31185F6
:104B2C0083F31188BFF36F8F02F042FD48B100226E
:104B3C00C0F8AC2002F0C5FC2946074800F000FA8A
:104B4C0038BDA368E268934203D001221344A360EA
:104B5C00F2E70022FAE700BF580A002030B583B014
:104B6C001D464FF02003EFF3118183F31188BFF33F
:104B7C006F8F836843B1013B836081F31188BFF36E
:104B8C006F8F002003B030BD144654EA050306D0E5
:104B9C00CDE900450246054800F048FAF2E781F3FA
:104BAC001188BFF36F8F6FF00F00EBE7580A0020EE
:104BBC00F8B50D46C36813F0020F5BD1044613F031
:104BCC00040F5CD10B68002B37D0E36813F0010F96
:104BDC0036D0A3682B6002272E68002E3ED0294BBE
:104BEC009B68B3422ED000231A46D6F8C830C3F3C4
:104BFC008001C3F3C00013F0010F32D001B19AB39E
:104C0C0000B1A1B300232360D6F8B4300BB31C6001
:104C1C00C6F8B4400022114606F1B80002F0F3FCCD
:104C2C000120002806DBE36843F00403E3602B68F3
:104C3C00A3603846002821DC1EE083680B60C4E7C3
:104C4C000127C9E702F01AFB08B90123CCE70023BE
:104C5C00CAE7C6F8B440C6F8B040DBE76FF0150001
:104C6C00DFE76FF01200DCE76FF00F00D9E76FF0B1
:104C7C000F00D6E76FF00F0000232B60F8BD00206B
:104C8C00FAE700BF240A002070B50546C36823F07C
:104C9C000203C360194B1868E8B1044600B10468FC
:104CAC0000261DE05EB103683360144B5B689842CC
:104CBC000ED0002340F8083BFFF72CFF15E00268EC
:104CCC000E4B1A605B689842F3D10C4B5A60F0E7BC
:104CDC000A4B5E60EDE70446E2E7234620461C469D
:104CEC0050B14368AB42DDD00646002CF5D02346CC
:104CFC00002CF3D02368F1E770BD00BF580A0020E8
:104D0C00F0B585B0054616E0D5F8C83023F004029E
:104D1C00C5F8C82013F0040F58D1002302934FF0AC
:104D2C00FF324FF0FF33CDE9002305F1B8023146D5
:104D3C002E4800F09FFC4FF02003EFF3118683F315
:104D4C001188BFF36F8FD5F8B040002CDCD02368EE
:104D5C00C5F8B030D5F8B420944234D0D5F8C8306A
:104D6C0043F00203C5F8C830E36843F0010323F0B5
:104D7C000403E3606368002CCFD086F31188BFF383
:104D8C006F8F204698474FF02003EFF3118683F383
:104D9C001188BFF36F8FE36823F00103E36013F016
:104DAC00020F1ED1D5F8C83023F00203C5F8C83065
:104DBC00C3F3002386F31188BFF36F8F002BBAD196
:104DCC0000F05AFBB7E7C5F8B430C7E705F1C007E8
:104DDC0000220121384602F016FC0028F8D10023ED
:104DEC00C9E72046FFF750FFDCE700BF580A002058
:104DFC0008B50146014802F0A8FA08BDA802002037
:104E0C00F0B589B004460E9D0020C4F8B000C4F87B
:104E1C00B40004F1B800C4F8B800C4F8BC0004F144
:104E2C00C000C4F8C000C4F8C400FDB12879F8B9BA
:104E3C000120C4F8C8004FF0FF364FF0FF37CDE922
:104E4C0006670020049003930290019000940A4B93
:104E5C00204602F02AFA25B1296811B12046FFF745
:104E6C00A7FC204602F012FA09B0F0BD0120E0E7E1
:104E7C0040F20110DDE700BF0D4D000038B5B3F175
:104E8C00FF3F08BFB2F1FF3F00D138BD02491830D7
:104E9C0000F064FCF9E700BF0775000008B5084B8B
:104EAC001B6803B908BDFDF795FB0346044A10685F
:104EBC000344044A1361002102F027FCF2E700BF0F
:104ECC00680A0020240A00202DE9F0410646884695
:104EDC0000234FF02002EFF3118782F31188BFF308
:104EEC006F8F09E0134BC3F80080FFF7D7FF87F3F0
:104EFC001188BFF36F8F0123CBB900230E4A1361C6
:104F0C00750CF40340F2E7304FF47A72002320184A
:104F1C004FF0000145EB0101FBF7DAF8074B186085
:104F2C00002EDFDD0228B8BF02201860DAE7BDE8EA
:104F3C00F08100BF640A0020240A0020680A0020C7
:104F4C0008B5084621B9EFF3058313B9012100E038
:104F5C00002111F0010F07D0064B5A6A9B689A4248
:104F6C0002D0FDF759FB03E080F31188BFF36F8F7C
:104F7C0008BD00BF240A002000234FF02002EFF3ED
:104F8C00118182F31188BFF36F8F53B9054B9A6867
:104F9C00D37B013BD37381F31188BFF36F8F012354
:104FAC00F3E77047240A002038B504460F4802F096
:104FBC0036FA054670B184B90D4B9B685A7B12F0DA
:104FCC001F0F0AD1AA6942B9DA897F2A05D9084A82
:104FDC0053620AE0064BDD68EDE7054B9B68AB427C
:104FEC0001D0FFF75BFF024B5D6238BD4C0A00201D
:104FFC00240A002010B50446427B90F90D30002B9A
:10500C0008DB084B9868A04214BF00200120FFF772
:10501C00CBFF10BD02F07F0242730146024802F042
:10502C00F6F9EEE7240A00204C0A002010B50C46D5
:10503C001146064B9868064B1860DDE9022302F016
:10504C001FFA2046FDF7E8FA10BD00BF240A002025
:10505C00600A002038B50446183002F022FB002309
:10506C004FF02002EFF3118582F31188BFF36F8F9D
:10507C0010E0637B43F010036373154B9868A042F8
:10508C0014BF00200120FFF78FFF85F31188BFF3B9
:10509C006F8F012363B9627B94F90D30002BE8DA32
:1050AC0002F07F02627321460A4802F0B0F9E0E791
:1050BC00074B9B68A34200D038BD4FF02003EFF3A1
:1050CC00118083F31188BFF36F8F02F08BF9F3E734
:1050DC00240A00204C0A002010B500234FF02002B7
:1050EC00EFF3118482F31188BFF36F8F6BB90C4B04
:1050FC009A68D37B0133D3730020FFF755FF84F3F9
:10510C001188BFF36F8F0123F0E74FF02003EFF30B
:10511C00118083F31188BFF36F8F02F063F910BD18
:10512C00240A002038B50546427B90F90D30002B3F
:10513C0028DB6B7B63F07F036B731A4B53F8284FA0
:10514C009C422DD06CB12146284602F022F9002851
:10515C0020DC34B1134BDB6A9C4202D02468002C57
:10516C00F0D1104BDA6A03F1280129606A601560EE
:10517C00DD620C4B9868A84214BF00200120FFF799
:10518C0013FF38BD02F07F0242730146064802F05D
:10519C003EF9CEE763686B602C601D606560E8E7E4
:1051AC000024CFE7240A00204C0A002010B54FF051
:1051BC002003EFF3118483F31188BFF36F8F1C4B23
:1051CC009B681C4A126893421DD01A4A0021116038
:1051DC00194A126822B3DA897F2A21D85A7B12F035
:1051EC001F0F1DD193F90E10144A1268914217DB50
:1051FC00134A934214D00E4A126982420ADD101AE5
:10520C000B4B18610FE0FFF749FE84F31188BFF3D5
:10521C006F8F0CE01846FFF785FFFFF73FFE02E0AB
:10522C00034B00221A6184F31188BFF36F8F10BDFA
:10523C00240A0020600A0020680A0020640A00206A
:10524C004001002038B5437B90F90D20002A2DDB5E
:10525C00044613F01F0F05D182690AB1002202E047
:10526C00012200E000220AB363F07F036373144B46
:10527C0053F8285F9D4220D06DB12946204602F09C
:10528C0088F8002813DC35B10D4BDB6A9D4202D047
:10529C002D68002DF0D10A4BDA6A03F12801216048
:1052AC0062601460DC620020FFF77EFE38BD6B6824
:1052BC00636025601C606C60F5E70025DCE700BFCF
:1052CC00240A002010B54FF02003EFF3118483F370
:1052DC001188BFF36F8F437B13F0040F04D184F359
:1052EC001188BFF36F8F10BD23F004034373FFF7D6
:1052FC00A9FF21460148FFF723FEF4E7640A0020CA
:10530C002DE9F84304460F4600234FF02002EFF33B
:10531C00118682F31188BFF36F8F984608E012F064
:10532C00010811D1A77386F31188BFF36F8F012386
:10533C001A46002B3DD1637B13F01F0FEFD1A169EF
:10534C000029ECD10122EAE703F07F036373DFF855
:10535C006C902146484602F05AF8A773637B63F0C1
:10536C007F036373D9F800504D4520D06DB12946A9
:10537C00204602F00EF8002813DC35B10E4BDB6A28
:10538C009D4202D02D68002DF0D10B4BDA6A03F14F
:10539C002801216062601460DC620120FFF704FECA
:1053AC00C1E76B68636025601C606C60F5E70025E5
:1053BC00DCE74046BDE8F883240A00204C0A0020B4
:1053CC00F8B5437B13F0080F45D1054643F00803AD
:1053DC0003F0DF03437313F0800F14D1AB685BB1A0
:1053EC00284601F0D4FF294602F011F86B7B23F01C
:1053FC0002036B730023AB6005F1180002F051F946
:10540C0005F158071CE003F07F0343730146124873
:10541C0001F0FDFFE2E7204601F0B9FF214601F063
:10542C00F6FF637B23F0020363730026A66004F18E
:10543C00180002F036F9C4F8AC602046FFF702FF02
:10544C003C68BC4201D0002CE5D10120FFF7ACFD3B
:10545C002846FFF78DF9F8BD4C0A002008B5054B1E
:10546C0003F128029A62DA6200210846FFF72CFD4C
:10547C0008BD00BF240A0020F8B54FF02003EFF35D
:10548C00118683F31188BFF36F8F1C4CA1684B7B83
:10549C0003F07F034B7304F12807384601F0B7FF84
:1054AC00A5686B7B63F07F036B73A46ABC4223D04B
:1054BC006CB12146284601F06CFF002816DC34B193
:1054CC000E4BDB6A9C4202D02468002CF0D10B4BB3
:1054DC00DA6A03F1280129606A601560DD62012037
:1054EC00FFF762FD3046FDF797F8F8BD63686B6017
:1054FC002C601D606560F2E70024D9E7240A0020C7
:10550C002DE9F04104460D4654EA050137D06FF001
:10551C0001010A1A4FF0FF3161EB0503012A73F107
:10552C00000330DB6FF00106361A4FF02003EFF367
:10553C00118883F31188BFF36F8F164FB868164B21
:10554C001860FFF757FDB86822462B4613491830F0
:10555C0000F004F9BA68537B43F0100353734046D0
:10556C00FDF75AF8002502F0FBF8341A65F1000536
:10557C00012C75F100030ADA0020BDE8F081FFF779
:10558C007BFF0020F9E702F0EBF80619CDE7204687
:10559C00F3E700BF240A0020600A00200775000012
:1055AC0038B5B1F1FF3F08BFB0F1FF3F1AD0FFF79C
:1055BC00A7FF0446C5176901430141EAD062181AD6
:1055CC0062EB05039A0042EA9072810013460819B7
:1055DC0045EB0303DA0042EA5072C100C80B40EA03
:1055EC00424038BD034B9868FFF734FD4FF0FF3055
:1055FC00F7E700BF240A0020014B9868704700BFF2
:10560C00240A0020EFF3058333B9054B9B68DB8933
:10561C007F2B03D801207047002070470020704773
:10562C00240A002038B54FF02003EFF3118583F3E3
:10563C001188BFF36F8F437B13F0080F04D085F3F1
:10564C001188BFF36F8F38BD0446FFF7B9FE084BC6
:10565C009B68A34204D085F31188BFF36F8FF2E7E8
:10566C00EFF30583002BF6D12846FCF7D5FFF2E7C4
:10567C00240A0020D0B582B0089CDDE90667CDE98C
:10568C000067FFF7D3FC1CB1024B9B685B6923607E
:10569C0002B0D0BD240A002008B50648064A121AEA
:1056AC00064901F0D0F9064A0649074801F0CBF942
:1056BC0008BD00BF0000002054000020FC83000047
:1056CC0000000000FC83000000000020034B186861
:1056DC00984200D070470020FCE700BF2800002053
:1056EC0030B1044A5268904201D0006870470020E3
:1056FC00704700BF2800002008B5044B1B680BB195
:10570C00002008BDFCF766FFFBE700BF6C0A002019
:10571C0010B5FFF7DBFF0446FFF7EEFF8CB1D4E9C1
:10572C000423121A63EBE073012A73F1000111DBFD
:10573C001046B2F1004F73F1000304DB6FF0004030
:10574C0001E06FF00040044B1B6913B1834200DA97
:10575C00184610BD0020F6E7240A00202DE9F04F72
:10576C0083B0B3F1FF3F08BFB2F1FF3F00F096806A
:10577C00824614461D46816000234FF02002EFF351
:10578C00118B82F31188BFF36F8F2EE0012200235F
:10579C004BE0FFF7B1FF221845EBE073013243F108
:1057AC000003CAF81020CAF8143042E0009BC21A59
:1057BC00019B61EB0303CCF81020CCF81430DCF81F
:1057CC000430CAF80430CAF800C0C3F800A0CCF802
:1057DC0004A0BCF1000F49D0FFF778FF824550D0F0
:1057EC008BF31188BFF36F8F0123002B56D16FF011
:1057FC000103B3EB04084FF0FF3060EB0509B8F17F
:10580C00000F79F10003C4DB264A13685268E318D1
:10581C0045EB02026FF00101CE1A60EB0207324633
:10582C003B46012E77F10001B0DBCAF81020CAF814
:10583C001430FFF74BFF8446BCF1000FC9D0DCE9F4
:10584C000401DAE90423CDE9002382428B41ADDB6C
:10585C00009B1A1A019B63EB0103CAF81020CAF8CB
:10586C0014306046FFF73CFF8446E5E70E4B5A6860
:10587C00CAF80030CAF80420C2F800A0C3F804A08B
:10588C00AAE7FFF745FF034618B1084A126982429E
:10589C00A6D000211846FCF76DFEA1E703B0BDE8C9
:1058AC00F08F00BFA002002028000020240A002056
:1058BC00F8B50446FFF77AFC4FF02003EFF311859F
:1058CC0083F31188BFF36F8F284B1C60FFF7FEFE2C
:1058DC00044650B3D0E90467244B1B68D917B34274
:1058EC0071EB070221DB224AD2E90001801941EB5E
:1058FC00E671C2E900019B1B1C4A136000220023C5
:10590C00C4E90423204601F0B5FE85F31188BFF3EA
:10591C006F8FA368204698474FF02003EFF3118553
:10592C0083F31188BFF36F8FD0E744B10F4B196825
:10593C00D4E90423521A63EBE173C4E904230C4841
:10594C000A490C68D0E90023121943EBE473C0E94F
:10595C00002300240C60FFF7DBFE2146FCF70AFE57
:10596C0085F31188BFF36F8FF8BD00BF6C0A002060
:10597C00A002002010B500214FF02003EFF311849A
:10598C0083F31188BFF36F8F0022002369B9FCF7F2
:10599C0021FE074BD3E90023121843F1000384F3D3
:1059AC001188BFF36F8F0121F0E71046194610BD27
:1059BC00A002002010B50446D0E90A2352EA0301E4
:1059CC0005D0B3F1FF3F08BFB2F1FF3F16D1236BF7
:1059DC0001332363236A0BB12046984704F1180363
:1059EC00A469A34209D044B1204601F0DCFC002399
:1059FC00C4F8AC30204601F064FD10BD0149FFF73E
:105A0C00ADFEE4E7C15900002DE9F04F87B0144614
:105A1C001D46DDE91089B3F1FF3F08BFB2F1FF3F2E
:105A2C0035D0064613462A46B9F1FF3F08BFB8F1F8
:105A3C00FF3F12D058EA09010FD06FF00107B7EB06
:105A4C00080702974FF0FF3161EB09070397DDE977
:105A5C000201002871F100011CDB6FF00101B1EBB8
:105A6C00030A4FF0FF3161EB020BBAF1000F7BF12F
:105A7C00000123DB304601F014FEC6E90A8900233D
:105A8C00336322462B4617493046FFF767FE07B0B3
:105A9C00BDE8F08F18F1FF31049149F1FF31059108
:105AAC00DDE9047838464146012F78F1000702DB26
:105ABC0080468946D1E701200021F9E713F1FF3335
:105ACC00009342F1FF330193DDE9000102460B46DE
